:0400000007EF00F016
:10000800098209ED00F0EAEF00F00600F2A20FEF16
:1000180000F011EF00F014EF00F0011E021EF29242
:10002800F2A419EF00F01BEF00F0B0EF00F0034A64
:10003800042AF29404BE2AEF00F0045009E1980E55
:10004800035CD8A02AEF00F02CEF00F089EF00F055
:1000580001500210D8A433EF00F035EF00F085EF1F
:1000680000F006BE3AEF00F03CEF00F085EF00F03C
:100078008C9863EF00F08C908C928C948C9685EF22
:1000880000F08C808C928C948C9685EF00F08C908C
:100098008C828C948C9685EF00F08C908C928C845A
:1000A8008C9685EF00F08C908C928C948C8685EFE2
:1000B80000F08C808C828C848C8685EF00F005C0E3
:1000C80007F006C008F00850000AD8B46EEF00F038
:1000D8005DEF00F00750000AD8B43FEF00F0010AC6
:1000E800D8B445EF00F0030AD8B44BEF00F0010A8A
:1000F800D8B451EF00F0070AD8B457EF00F05DEF1D
:1001080000F0000E046E000E036EF0A08EEF00F0FB
:1001180090EF00F09CEF00F001500210D8A497EF88
:1001280000F099EF00F09BEF00F0054A062AF090E6
:10013800F0A2A1EF00F0A3EF00F0B0EF00F0015043
:100148000210D8A4AAEF00F0ACEF00F0AFEF00F077
:100158000506D8A00606F09201500210D8A4B7EF01
:1001680000F0B9EF00F0C5EF00F006BEC0EF00F0F8
:10017800BEEF00F0C5EF00F08C908C928C948C96BA
:100188008C8809921100700ED3120F0EC16E070EE3
:10019800936E000E956E8A908A928A948C908C92B7
:1001A8008C948C968C98D08EF28EF28CF28AF18C8C
:1001B800F18AF188F288F086F088D59CD59AD5988E
:1001C800D586D58EE6EF00F007EF00F0066A056ADF
:1001D800046A036A026A016A09900992000EF86EBD
:0601E8000001C7EF00F06A
:020000040020DA
:08000000FFFFFFFFFFFFFFFF00
:020000040030CA
:0E000000010B1800FF8381FF0FC00FE00F40BF
:00000001FF
