:0400000007EF00F016
:10000800098209ED00F0FDEF00F00600F2A20FEF03
:1000180000F011EF00F026EF00F0011E021E8CBA6E
:1000280018EF00F01BEF00F0010E1CEF00F0000EBF
:10003800FF0A076E073A07468C500718DF0B0718A8
:100048008C6EF292F2A42BEF00F02DEF00F0C2EFCD
:1000580000F0034A042AF29404BE3CEF00F0045076
:1000680009E1980E035CD8A03CEF00F03EEF00F0E9
:100078009BEF00F001500210D8A445EF00F047EFC5
:1000880000F097EF00F006BE4CEF00F04EEF00F0E6
:1000980097EF00F08C9875EF00F08C908C928C9410
:1000A8008C9697EF00F08C808C928C948C9697EFBE
:1000B80000F08C908C828C948C9697EF00F08C904A
:1000C8008C928C848C9697EF00F08C908C928C9408
:1000D8008C8697EF00F08C808C828C848C8697EFCE
:1000E80000F005C007F006C008F00850000AD8B4B0
:1000F80080EF00F06FEF00F00750000AD8B451EF1E
:1001080000F0010AD8B457EF00F0030AD8B45DEF45
:1001180000F0010AD8B463EF00F0070AD8B469EF19
:1001280000F06FEF00F0000E046E000E036EF0A0FA
:10013800A0EF00F0A2EF00F0AEEF00F001500210C7
:10014800D8A4A9EF00F0ABEF00F0ADEF00F0054A3E
:10015800062AF090F0A2B3EF00F0B5EF00F0C2EF7E
:1001680000F001500210D8A4BCEF00F0BEEF00F080
:10017800C1EF00F00506D8A00606F0920150021063
:10018800D8A4C9EF00F0CBEF00F0D7EF00F006BE1F
:10019800D2EF00F0D0EF00F0D7EF00F08C908C9207
:1001A8008C948C968C8809921100700ED3120F0EC5
:1001B800C16E070E936E000E956E8A908A928A948D
:1001C8008C908C928C948C968C988C9AD08EF28E83
:1001D800F28CF28AF18CF18AF188F288F086F08844
:1001E800D59CD59AD598D586D58EF9EF00F007EF2E
:1001F80000F0066A056A046A036A026A016A0990DD
:0C0208000992000EF86E0001D9EF00F022
:020000040020DA
:08000000FFFFFFFFFFFFFFFF00
:020000040030CA
:0E000000010B1800FF8381FF0FC00FE00F40BF
:00000001FF
