:0400000007EF00F016
:10000800098209ED00F0E8EF00F00600F2A20FEF18
:1000180000F011EF00F014EF00F0011E021EF29242
:10002800F2A419EF00F01BEF00F0B7EF00F0034A5D
:10003800042AF29404BE2AEF00F0045009E1980E55
:10004800035CD8A02AEF00F02CEF00F090EF00F04E
:1000580001500210D8A433EF00F035EF00F08CEF18
:1000680000F0F2B23AEF00F03CEF00F08CEF00F055
:1000780006BE41EF00F043EF00F08CEF00F08C98E3
:100088006AEF00F08C908C928C948C968CEF00F038
:100098008C808C928C948C968CEF00F08C908C8257
:1000A8008C948C968CEF00F08C908C928C848C962F
:1000B8008CEF00F08C908C928C948C868CEF00F0F6
:1000C8008C808C828C848C868CEF00F005C007F0C5
:1000D80006C008F00850000AD8B475EF00F064EFC5
:1000E80000F00750000AD8B446EF00F0010AD8B46F
:1000F8004CEF00F0030AD8B452EF00F0010AD8B46C
:1001080058EF00F0070AD8B45EEF00F064EF00F093
:10011800000E046E000E036EF0A095EF00F097EF4E
:1001280000F0A3EF00F001500210D8A49EEF00F0F9
:10013800A0EF00F0A3EF00F0054A062AF090F0A225
:10014800A8EF00F0AAEF00F0B7EF00F0015002109E
:10015800D8A4B1EF00F0B3EF00F0B7EF00F0050658
:10016800D8A00606F09206BEBEEF00F0BCEF00F085
:10017800C3EF00F08C908C928C948C968C880992AA
:100188001100700ED3120F0EC16E070E936E000E83
:10019800956E8A908A928A948C908C928C948C9684
:1001A8008C98D09EF28EF28CF28AF18CF18AF188CA
:1001B800F288F086F088D59CD59AD598D586D58EC4
:1001C800E4EF00F007EF00F0066A056A046A036AC4
:1001D800026A016A09900992000EF86E0001C5EFE3
:0201E80000F025
:020000040020DA
:08000000FFFFFFFFFFFFFFFF00
:020000040030CA
:0E000000010B1800FF8381FF0FC00FE00F40BF
:00000001FF
